:100000009BC50000C1C50000BFC50000BDC5000004
:10001000BBC50000B9C50000B7C50000B5C50000EC
:10002000B3C50000B1C50000AFC50000ADC50000FC
:10003000ABC50000A9C500000C946F2B0C94122CCA
:10004000A3C50000A1C500009FC500009DC500001C
:100050009BC5000099C5000097C5000095C500002C
:1000600093C500000C94472B8FC500008DC5000080
:100070008BC5000089C5000087C5000085C500004C
:1000800083C5000081C500007FC500007DC500005C
:100090004C4F4144002D2D2D2E2D2D570057002D56
:1000A0002E2D2D2D410041002D2D2D2E2D2D5600B4
:1000B0005600564255533A00410056202F20004129
:1000C0000056202F2000352E3056202F203F2E6E38
:1000D00041004100202F20005245513A002D2D4370
:1000E0000043004F4646004F4E004645543A0041FB
:1000F000565300505053004649584544002D2D2E6C
:100100002D2D570057002D2E2D410041002D2D2E55
:100110002D2D560056004C6F61643A004100536526
:100120007420493A00560053657420563A00430043
:100130002D2D43004356004356204C494D00434368
:10014000004343204C494D004F4646004F4E00505F
:1001500053550042617369632055534220536F75B4
:100160007263650021204E4F205044202100000082
:100170000000003E5B4F5B3E3E6B4F6B3E1C3E7C87
:100180003E1C183C7E3C181C577D571C1C5E7F5E35
:100190001C00183C1800FFE7C3E7FF0018241800F4
:1001A000FFE7DBE7FF30483A060E2629792926408B
:1001B0007F050507407F05253F5A3CE73C5A7F3EB7
:1001C0001C1C08081C1C3E7F14227F22145F5F0049
:1001D0005F5F06097F017F006689956A60606060E5
:1001E0006094A2FFA29408047E040810207E2010D0
:1001F00008082A1C08081C2A08081E101010100CD9
:100200001E0C1E0C30383E3830060E3E0E06000026
:1002100000000000005F00000007000700147F14CA
:100220007F14242A7F2A1223130864623649562039
:10023000500008070300001C2241000041221C005E
:100240002A1C7F1C2A08083E08080080703000081D
:1002500008080808000060600020100804023E51F1
:1002600049453E00427F4000724949494621414983
:100270004D331814127F1027454545393C4A4949EA
:100280003141211109073649494936464949291E54
:100290000000140000004034000000081422411443
:1002A00014141414004122140802015909063E4195
:1002B0005D594E7C1211127C7F494949363E4141BD
:1002C00041227F4141413E7F494949417F09090916
:1002D000013E414151737F0808087F00417F410082
:1002E0002040413F017F081422417F404040407F31
:1002F000021C027F7F0408107F3E4141413E7F097E
:100300000909063E4151215E7F09192946264949BE
:10031000493203017F01033F4040403F1F204020FE
:100320001F3F4038403F63140814630304780403FC
:100330006159494D43007F414141020408102000AA
:100340004141417F0402010204404040404000031B
:1003500007080020545478407F28444438384444E7
:100360004428384444287F385454541800087E09DF
:100370000218A4A49C787F0804047800447D4000FF
:100380002040403D007F1028440000417F40007C19
:10039000047804787C080404783844444438FC1811
:1003A00024241818242418FC7C08040408485454F5
:1003B000542404043F44243C4040207C1C20402022
:1003C0001C3C4030403C44281028444C9090907C89
:1003D0004464544C4400083641000000770000009B
:1003E0004136080002010204023C2623263C1EA1DD
:1003F000A161123A4040207A38545455592155553C
:1004000079412254547842215554784020545579EA
:10041000400C1E527212395555555939545454597D
:1004200039555454580000457C410002457D420036
:1004300001457C407D1211127DF0282528F07C5466
:100440005545002054547C547C0A097F493249495F
:1004500049323A4444443A324A4848303A414121C8
:100460007A3A42402078009DA0A07D3D4242423D24
:100470003D4040403D3C24FF2424487E4943662BB8
:100480002FFC2F2BFF0929F620C0887E090320545A
:100490005479410000447D413048484A3238404058
:1004A000227A007A0A0A727D0D19317D2629292FB8
:1004B00028262929292630484D40203808080808D0
:1004C00008080808382F10C8ACBA2F102834FA00D2
:1004D000007B000008142A142222142A1408550054
:1004E000550055AA55AA55AAFF55FF55FF00000013
:1004F000FF00101010FF00141414FF001010FF0074
:10050000FF1010F010F0141414FC001414F700FF86
:100510000000FF00FF1414F404FC141417101F1043
:10052000101F101F1414141F00101010F0000000F2
:10053000001F101010101F10101010F010000000FD
:10054000FF101010101010101010FF10000000FF0E
:10055000140000FF00FF00001F10170000FC04F44F
:1005600014141710171414F404F40000FF00F71407
:10057000141414141414F700F7141414171410108E
:100580001F101F141414F4141010F010F000001FAA
:10059000101F0000001F14000000FC140000F010E9
:1005A000F01010FF10FF141414FF141010101F008F
:1005B000000000F010FFFFFFFFFFF0F0F0F0F0FF91
:1005C000FFFF0000000000FFFF0F0F0F0F0F384468
:1005D000443844FC4A4A4A347E02020606027E023D
:1005E0007E0263554941633844443C04407E201EEA
:1005F0002006027E020299A5E7A5991C2A492A1C19
:100600004C7201724C304A4D4D303048784830BC05
:10061000625A463D3E494949007E0101017E2A2A2F
:100620002A2A2A44445F444440514A444040444AB0
:1006300051400000FF0103E080FF000008086B6BE1
:10064000083612362436060F090F06000018180067
:1006500000001010003040FF0101001F01011E00CA
:10066000191D1712003C3C3C3C000000000000013A
:1006700003070F1F3F7F0080C0E0F0F8FCFEDB4067
:10068000A4A62EAF2000A1C8D300408DAED580A86F
:1006900000006000000000000000000000000000FA
:1006A00000E0000000000000000000000000000169
:1006B000E00000000000000000000000000001F069
:1006C0000000000000000000000000000003F00037
:1006D00000000000000000000000000007F0000023
:1006E000000000000000000000000007F80000000B
:1006F000000000000000000000000FF800000003F0
:10070000C0007E000001E0007F0FF800000003C081
:1007100000FE000001E000FFEFF800000003C00051
:10072000FE000001E000FFFFF800000003C000F041
:100730000000000F007FFE7FC0000003C000F0003B
:1007400000000F003FFE7FF83FF1FBCFFCFEF3BC43
:100750003DEFE01FFE7FFF7FFBFFDFFEFEFFBC3DA6
:10076000EFE01FC6FFFF7FFBFFDFFEFEFFBC3DEF9C
:10077000E00FE3C7FE787BC3DE1EF0FFBC3DEF0059
:1007800007FF87FC787BC3DE1EF0F83C3DEF0001DD
:10079000FFFFF0007BC3C01EF0F03C3DEF0001F313
:1007A0007FE03FFBC3CFFEF0F03C3DEF0003E33FB3
:1007B000807FFBC3DFFEF0F03C3DEF0007E73C002D
:1007C000787BC3DE1EF0F03C3DEF0007FFBE0078F3
:1007D0007BC3DE1EF0F03C3DEF0007FFFE00787BA0
:1007E000C3DE1EF0F03C3DEF000FFFFE007FFBFF7D
:1007F000DFFEF0F03FFDEFE00FFFFF007FFBFFDFCC
:10080000FEF0F03FFDEFE00FF9FF003E79F9CF9EDB
:10081000F0F01F3DE7E01FF1FF00000000000000C6
:1008200000000000001F80FF007FFFFFFFFFFFFFB1
:10083000FFFFFFE01C007F007FFFFFFFFEB46D881D
:100840008D18E000001F007FFFFFFFFE95AD7DB516
:1008500077E000000F007FFFFFFFFEA5AD9D8D1923
:10086000E0000006007FFFFFFFFEB5ADEDB57EE0C6
:1008700000000000000180000000000000000000F7
:10088000038000000000000000000007C00000001E
:1008900000000000000007C0000000000000000091
:1008A000000FC00000000000000000001FE000007A
:1008B000000000000000001FE00000000000000039
:1008C00000003FE00000000000000000003FF000DA
:1008D00000000000000000007FF0000000000000A9
:1008E000001FF87FF0000000000000003FFE7FF0D6
:1008F000000000000000003FFF7FF000000000004B
:1009000000001FFFFBE0000000000000000FFFF9E7
:10091000FFC00000000000000FFFF9FFF80000001A
:1009200000000007FFF1FFFF00000000000003FCD3
:1009300073FFFF80000000000001FE3FFFFF80000A
:100940000000000000FF1E0FFF000000000000007C
:100950007FFE1FFC000000000000003FFFFFF800CA
:100960000000000000000FDFFFE0000000000000BA
:10097000001F19FFC0000000000000003F3CFF0006
:10098000000000000000007E7CF800000000000075
:1009900000007FFE7C0000000000000000FFFFFC64
:1009A0000000000000000000FFFFFE00000000004B
:1009B000000000FFFFFE0000000000000001FFEF4C
:1009C000FE0000000000000001FFCFFE000000005C
:1009D00000000003FF07FE0000000000000003FC11
:1009E00007FE0000000000000003F003FE0000000E
:1009F00000000000018000FE000000000000000078
:100A000000007E000000000000000000003E00002A
:100A100000000000000000000C00000000000007C3
:100A20008000FC000003C0000000078001FC000003
:100A300003C0000000078001FC000003C0000000AC
:100A4000078001E00000001E000000078001E000B8
:100A500000001E007FE3F79FF9FDE7787BDFC0FF12
:100A6000F7FFBFFDFDFF787BDFC0FFF7FFBFFDFD98
:100A7000FF787BDFC0F0F787BC3DE1FF787BDE00CD
:100A8000F0F787BC3DE1F0787BDE0000F787803D22
:100A9000E1E0787BDE007FF7879FFDE1E0787BDE99
:100AA00000FFF787BFFDE1E0787BDE00F0F787BC51
:100AB0003DE1E0787BDE00F0F787BC3DE1E0787B4C
:100AC000DE00F0F787BC3DE1E0787BDE00FFF7FF5A
:100AD000BFFDE1E07FFBDFC0FFF7FFBFFDE1E07F8F
:100AE000FBDFC07CF3F39F3DE1E03E7BCFC0000025
:100AF000000000000000000000FFFFFFFFFFFFFFFD
:100B0000FFFFFFC0FFFFFFFFFD68DB111A31C0FFD1
:100B1000FFFFFFFD2B5AFB6AEFC0FFFFFFFFFD4BFE
:100B20005B3B1A33C0FFFFFFFFFD6B5BDB6AFDC061
:100B30002200FF21F02CC03911241FBECFEFCDBF02
:100B4000DFE3DEBF18E2A0E0B8E2E6E0FDE702C0C6
:100B500005900D92A839B107D9F72AE2A8E9B8E2C1
:100B600001C01D92A536B207E1F715E0CBE9D5E04B
:100B700004C02197FE010E94853CCA39D107C9F7FC
:100B80000E94542D0C94CA3D3BCA00008093C408B7
:100B90008091C30887FFFCCF8091C408089580939B
:100BA000FB291092BA291092FC290895089580918A
:100BB000B8299091B929891B990B0895CF92DF929A
:100BC000EF92FF920F931F93CF93DF93EC016A0193
:100BD0007B01C901B801C886D986EA86FB8620E078
:100BE00030E040E056E30E94863B6C877D878E872D
:100BF0009F87E881F9810088F189E02DCE01DF919E
:100C0000CF911F910F91FF90EF90DF90CF900994BB
:100C1000AF92BF92CF92DF92EF92FF920F931F930A
:100C2000CF93DF936C017B018B01040F151FEB0148
:100C30005E01AE18BF08C017D10759F06991D601FF
:100C4000ED91FC910190F081E02DC6010995892B71
:100C500079F7C501DF91CF911F910F91FF90EF9030
:100C6000DF90CF90BF90AF900895CF93DF9390E047
:100C7000FC01E851F44420812F3F61F0FC01ED5F5D
:100C8000F344E08130E2E39FF0011124FC5F613026
:100C900021F42183DF91CF91089583539444EC0193
:100CA000A881AF3F69F0CF014096A80FB92FB11DC1
:100CB0009FB7F89422838C9188608C939FBFEACF72
:100CC000B0E0A0E0F5CF8B3108F4CFCF089590E0ED
:100CD000FC01EE54F444E081EE2319F1E13021F0FF
:100CE00000F1E630A8F0089583539444FC0120817C
:100CF000233008F02F5F3091010A81E090E001C0BD
:100D0000880F2A95EAF7809583238093010A089536
:100D100080E1E89FF0011124E05AF54F81818F7E38
:100D2000818308950F931F93CF93DF93082F10E0D3
:100D3000F801E851F444D081DF3F99F0C62F8B31A0
:100D400008F4C5DFF801ED5FF344E08180E2E89F3D
:100D5000F0011124FC5F80818D2371F0C11106C068
:100D6000D683DF91CF911F910F910895C43011F474
:100D7000D783F7CFD583F5CFD801A353B4448C9153
:100D8000309771F08F3F61F07096E80FF11D9FB7BB
:100D9000F8948081C11107C0877F80839FBFE1CF16
:100DA000F0E0E0E0F4CF8860F8CF8B3108F4BACF00
:100DB000089500000000000000008230910558F006
:100DC0009C0127503109880F991F880F991F820FA6
:100DD000931F0197F1F708956FB7F8942091A62813
:100DE0003091A7284091A8285091A9288091AA0A5B
:100DF0009091AB0A7091A60A70FF08C02F5F3F4F19
:100E00004F4F5F4F8091AA0A9091AB0A6FBFE92FB5
:100E1000FF27BC01A4E076956795AA95E1F7E60F58
:100E2000F71FBC01B6E076956795BA95E1F7E61B2A
:100E3000F70B892F992786958695E81BF90BA8EE65
:100E4000B3E00E943E3C6E0F7F1F811D911D0895EF
:100E50008F929F92AF92BF92CF92DF92EF92FF92CA
:100E60004B015C01B9DF6B017C01A8EEB3E0A50189
:100E700094010E943E3CC60ED71EE81EF91EC616FF
:100E8000D706E806F90610F4A7DFF9CFA5DF6C1541
:100E90007D058E059F05D0F3FF90EF90DF90CF90FA
:100EA000BF90AF909F908F9008952FB7F894609166
:100EB000A6287091A7288091A8289091A9282FBFD3
:100EC0000895CF92DF92EF92FF920F931F93CF93EB
:100ED000DF93EC016A017B01C901B801C886D9869C
:100EE000EA86FB8620E030E040E056E30E94863B45
:100EF0006C877D878E879F87E881F9810088F189DB
:100F0000E02DCE01DF91CF911F910F91FF90EF90D7
:100F1000DF90CF900994EF92FF920F931F93CF939E
:100F2000DF93EC01EC80FD806E157F050CF070C046
:100F300057FF04C0240F351F50E040E08E819F8191
:100F4000FA01E20FF31F8E179F071CF49C01241B6C
:100F5000350B121613060CF05BC0922F842F86956A
:100F6000869586958E9DD0018F9DB00D11246A0FB8
:100F70007B1FAF8DB8A1A60FB71F477049F188E05E
:100F8000841B482F682F70E0FB01EA58F94FE49169
:100F9000281708F063C0621B71092FEF30E002C010
:100FA000359527956A95E2F7E2230130110539F06E
:100FB000B0F10230110561F58C91E82702C08C91E7
:100FC000E82BEC93941720F12C813D81A20FB31FE5
:100FD000E92FE41BE83078F00230110521F58E2F5F
:100FE0009C9190959C932C813D81A20FB31F8850BA
:100FF0008830B0F7E770EE2359F0F0E0E259F94F8E
:10100000E49101301105F9F010F10230110519F1E8
:10101000DF91CF911F910F91FF90EF900895E09590
:101020008C91E823CECF81E00115110509F480E011
:1010300081959E2F8C932C813D81A20FB31F9850D8
:101040009830C0F7D7CF8C91E82BEC93E1CFE095A7
:101050008C91E823FACF8C91E827F7CF0130110566
:1010600009F4ADCFE0F20230110509F4A5CFAE0DC1
:10107000BF1DAECF0F931F93CF93DF9377FF04C0B5
:10108000260F371F70E060E0DC011496CD91DC91F3
:10109000FB01E20FF31FCE17DF071CF49E01261B96
:1010A000370B121613064CF5FA0157FD3796A3E0DD
:1010B000F595E795AA95E1F7EC9FD001ED9FB00D6E
:1010C000FC9FB00D11246A0F7B1FDC015F96ED9130
:1010D000FC91E60FF71F4770552781E090E001C0B3
:1010E000880F4A95EAF7482F0130110559F0A8F00A
:1010F0002E0F3F1F02301105E1F0DF91CF911F91BC
:101100000F9108952E0F3F1FE217F307B1F381915E
:10111000DF011197842B8C93F7CF80952E0F3F1F03
:10112000E217F30751F39191DF01119798239C93F4
:10113000F7CFE217F30709F38191DF0111978427B5
:101140008C93F7CF0F931F93FA01DC0156964C91C5
:1011500056974230E1F0433091F1413059F5149601
:101160004D915C91DA01AE1BBF0BFD01E21BF30B4D
:1011700077FD0AC0DC0116964D915C9164177507E6
:101180001CF4AB01BF0176DF1F910F9108951496F7
:101190004D915C91DA01A61BB70BBD01615071093D
:1011A000DC0116964D915C91DA01AE1BBF0BFD017F
:1011B000E21BF30B77FDE8CFAF01ADDEE5CF16966E
:1011C0004D915C91DA01A61BB70BBD01615071090D
:1011D000CFCF0F931F93FA01DC0156964C9156978F
:1011E0004230A1F0433081F1413011F514964D9118
:1011F0005C91DA01AE1BBF0BFD013197F7FD03C017
:10120000AB01BF0188DE1F910F91089516964D9195
:101210005C91DA01AE1BBF0BFD013197DC01149626
:101220004D915C91DA01A61BB70BBD01621B730BDC
:10123000F7FDE9CFDC0116964D915C91E417F507B7
:1012400014F7AF0117DFDFCF16964D915C91DA01ED
:10125000A61BB70BBD01621B730BD0CFFC0177FD42
:1012600064C080859185681779070CF05EC057FDD2
:101270005CC082859385481759070CF056C0868953
:101280008230B1F0833029F1813041F4848195813D
:10129000841B950BAB01BC016150710921303105F4
:1012A00009F108F443C02230310509F463C0089500
:1012B00084819581DC01A61BB70BBD0161507109CA
:1012C00086819781DC01A41BB50BAD01415051090A
:1012D000E5CF86819781861B970BBA01AC014150FF
:1012E0005109DCCFCA0157FD0796A3E09595879574
:1012F000AA95E1F7A481B5818A9F90018B9F300D5B
:101300009A9F300D1124620F731F078CF0A1E02DFE
:10131000E60FF71F4770552721E030E001C0220F8C
:101320004A95EAF78081822B80830895CA0157FD90
:10133000079633E0959587953A95E1F7A481B581B5
:101340008A9F90018B9F300D9A9F300D1124620F60
:10135000731F078CF0A1E02DE60FF71F477055278C
:1013600081E090E001C0880F4A95EAF7809590816E
:101370008923DACFCA0157FD079623E09595879513
:101380002A95E1F7A481B5818A9F90018B9F300D4A
:101390009A9F300D1124620F731F078CF0A1E02D6E
:1013A000E60FF71F4770552721E030E001C0220FFC
:1013B0004A95EAF780818227B7CF8F929F92AF92AA
:1013C000BF92CF92DF92EF92FF920F931F93CF9332
:1013D000DF93FC018681882319F081FF0EC0789489
:1013E000DF91CF911F910F91FF90EF90DF90CF9001
:1013F000BF90AF909F908F90089580FFF1CF808431
:101400009184A284B384C12CD12C760110E0940184
:10141000A501B601C701A0E00E94653C99F12170C9
:1014200030E040E050E060E070E080E090E00E945A
:10143000653CD9F0D0E0C0E0103370F4C12FC69500
:10144000C695C69580E2C89FE0011124C05FDB4FBE
:10145000812F8770C80FD11DCF01810F911DDC0135
:1014600050968C919881892B88839401A501B601AF
:10147000C70101E00E944A3C49015A016B017C010D
:101480001F5FC5CF84849584A684B784C12CD12CDA
:10149000760110E29401A501B601C701A0E00E9407
:1014A000653C09F49DCF217030E040E050E060E001
:1014B00070E080E090E00E94653CD9F0D0E0C0E0B0
:1014C000103370F4C12FC695C695C695B0E2CB9F78
:1014D000E0011124C05FDB4F812F8770C80FD11D41
:1014E000CF01810F911DDC0150968C919881892B41
:1014F00088839401A501B601C70101E00E944A3C1E
:1015000049015A016B017C011F5FC4CFFC01A7A5F3
:10151000B0A98C9194A9892B8C93838D948D00977D
:1015200009F04BCF08958F929F92AF92BF92CF92C6
:10153000DF92EF92FF920F931F93CF93DF93FC0103
:10154000C62F172F8681882319F081FF12C0F894C7
:10155000C093C0081093C108DF91CF911F910F91E4
:10156000FF90EF90DF90CF90BF90AF909F908F90C3
:10157000089580FFEDCF80849184A284B384C12C30
:10158000D12C7601D0E09401A501B601C701A0E0FD
:101590000E94653CB1F1217030E040E050E060E035
:1015A00070E080E090E00E94653CF1F090E080E027
:1015B000D03370F48D2F86958695869520E2829F94
:1015C000C0011124805F9B4F2D2F2770820F911D2A
:1015D000DC014C919F012D0F311DD90150964C9388
:1015E000DC012C91287F2C939401A501B601C70141
:1015F00001E00E944A3C49015A016B017C01DF5F16
:10160000C2CF84849584A684B784C12CD12C760162
:10161000D0E29401A501B601C701A0E00E94653C9B
:1016200009F496CF217030E040E050E060E070E0D7
:1016300080E090E00E94653CF1F090E080E0D033E3
:1016400070F48D2F869586958695B0E28B9FC001AC
:101650001124805F9B4F2D2F2770820F911DDC017D
:101660004C919F012D0F311DD90150964C93DC01F7
:101670002C91287F2C939401A501B601C70101E0AC
:101680000E944A3C49015A016B017C01DF5FC1CFD6
:10169000CF93DF93EC018B858F3F11F061E085DB09
:1016A00088819981009719F0DF91CF9186CEDF91E3
:1016B000CF910895CF93DF93EC01888199810097B2
:1016C00029F0EA81FB81608171812DDF8B858F3F5D
:1016D00021F060E0DF91CF9168CBDF91CF91089549
:1016E000AF92BF92CF92DF92EF92FF920F931F9330
:1016F000CF93DF93EC0188819981892B09F0A1C0F8
:101700008885998511E0892B09F010E8AA24A39413
:10171000862F812309F0A12C062F2C813D814E813B
:101720005F8160E271EA87E090E00E94003CD22E87
:10173000B02EC12CE22EF12CDD2011F0C70139DBD7
:101740008A858D7F09F04DC08D858F3F89F0802F70
:10175000812391E009F490E09A1551F0EF85F88922
:101760009F898823C1F18081982B9083AA24A39418
:10177000E989FA898081998D892B8083DD2011F098
:10178000C70117DB8E858F3F39F0EB89FC8980819B
:10179000988D892309F0C12AE989FA899081898D78
:1017A0008095892380838E858F3F09F0BC2C8885A6
:1017B0009985892B09F043C0110F1111BDCF8B2DD5
:1017C000DF91CF911F910F91FF90EF90DF90CF901D
:1017D000BF90AF9008958081909598239083A12C1D
:1017E000C7CFE989FA898081998D892B8083DD2093
:1017F00011F0C701DEDA8D858F3F49F0EF85F8895A
:101800008F89902F9123B9F09081892B8083E9896A
:10181000FA899081898D8095892380838E858F3F79
:1018200009F4C1CFEB89FC898081988D892309F463
:10183000BACFC12AB8CF908180958923E7CF16957A
:10184000BCCF862FDF91CF911F910F91FF90EF902A
:10185000DF90CF90BF90AF9098C98F929F92AF9238
:10186000BF92CF92DF92EF92FF920F931F93CF938D
:10187000DF937C014B016A01B22EA32E1BDFE40132
:10188000C80CD91CCC15DD0561F4CB2DDA2D0C0F5D
:101890001D1FC017D10749F06FEFC70121DF8993E2
:1018A000F8CF6991C7011CDFEDCFC701F1DE81E000
:1018B000DF91CF911F910F91FF90EF90DF90CF902C
:1018C000BF90AF909F908F9008958F929F92AF920C
:1018D000BF92CF92DF92EF92FF920F931F93CF931D
:1018E000DF937C01B62EA72E6A014901E3DEE401F5
:1018F000080D191DC017D10759F4CB2DDA2DCC0EC8
:10190000DD1ECC15DD0541F06991C701E9DEF9CF97
:101910006991C701E5DEEECFC701BADE81E0DF9154
:10192000CF911F910F91FF90EF90DF90CF90BF90DC
:10193000AF909F908F9008950895FC016370668B1F
:101940008481958126813781613039F0633029F0B7
:101950008087918722873387089520873187828700
:10196000938708952F923F924F925F926F927F924A
:101970008F929F92AF92BF92CF92DF92EF92FF929F
:101980000F931F93CF93DF93CDB7DEB76A97CDBF89
:10199000DEBF898F9A8F69837A834A01D22E0F83A3
:1019A00018873701BC2CDC0159962D913C915A9730
:1019B0002115310509F012C118968D919C91199746
:1019C000681779070CF0D4C11A968D919C9148172D
:1019D00059070CF0CDC14C2C512CB6E0CB9E600DBC
:1019E000711D11246B877C87161617060CF0C0C179
:1019F000EA2DF0E0E987FA8793E0EE0FFF1F9A9552
:101A0000E1F7EF87F88BCF01840F951F18161906A1
:101A10000CF0AEC1A98DBA8D58968C91811104C07D
:101A2000BFEABD1508F4D394A98DBA8DED91FC9150
:101A300011970284F385E02DCD010995B5E0DB9E79
:101A4000C0011124E981FA81EB83FC83312C212C24
:101A50009C0122593E4F2F8B388F4A2D50E04D8BE1
:101A60005E8BEF89F88DE20DF31D44918D829E828D
:101A7000D12CC12C69817A81620D731D698B7A8B9F
:101A8000842F90E08B8B9C8BE98DFA8DA081B181A6
:101A900040FF7FC0F1E0BF126CC0AF126AC01C965D
:101AA000ED91FC912F813885A4014C0D5D1D698954
:101AB0007A89898D9A8D0995EB89FC89F595E79549
:101AC0004E2F5FEFC51AD50A6D817E818D899E8963
:101AD000680F791F6D837E8398E0C916D10481F663
:101AE000AFEF2A1A3A0AEB81FC81E40DF51DEB8376
:101AF000FC83F5E02F16310409F0B3CF2F81388530
:101B000026153705B9F0A98DBA8DED91FC91B1E09C
:101B1000BB1254C0AB1252C069817A816B5F7F4F98
:101B20000088F189E02D830128E030E0A401898D4F
:101B30009A8D0995A98DBA8DED91FC911197068822
:101B4000F789E02DCD016A96CDBFDEBFDF91CF9141
:101B50001F910F91FF90EF90DF90CF90BF90AF90CB
:101B60009F908F907F906F905F904F903F902F90BD
:101B700009941E96ED91FC91EF80F88409851A85F1
:101B800092014D815E816B817C81898D9A8D099551
:101B900093CF2F8138852615370509F48DCF31E095
:101BA000B31207C0A31205C01C96ED91FC919301DE
:101BB0007BCF1E96ED91FC917301E0CF6B857C8508
:101BC000641975090684F785E02D73010F8518895E
:101BD0009201A401898D9A8D0995ACCFF9013496B3
:101BE0009491329745915491D91AB7E0DB9E400DFC
:101BF000511D1124F901259134912B8B3C8BFA0155
:101C000025903490FA013296749031963491398B44
:101C1000329664903196449041E04C1518F04A1584
:101C200008F07FC0662D062C000C770B6B837C833D
:101C3000842D042C000C990B8D839E83A98DBA8D65
:101C4000ED91FC9111970284F385E02DCD0109956A
:101C5000512CD12CC12CEA2DF0E0E987FA872B2DED
:101C600030E02B873C87A401440D511D47FC5A9559
:101C70004F8B588F69817A81660D711D67FC7A954B
:101C80006D877E877989C71608F054CF2C2D30E0F8
:101C90004D815E81420F531FA985BA854A9FC001BD
:101CA0004B9F900D5A9F900D1124FC01E80DF91DDA
:101CB000EF87F88B852D612C4F89588D420F531F6C
:101CC0004D8B5E8B671408F050C044244394480E3B
:101CD000877041F4C1010196EB89FC89E20DF31D87
:101CE000D4901C01D7FE19C0A98DBA8DED91FC913D
:101CF000662D70E0B1E0BB1219C0AB1217C02D8584
:101D00003E85620F731F0484F585E02D2F81388591
:101D10004D895E89898D9A8D0995DD0C6394842D9A
:101D2000D1CF1D821E821B821C8288CF4B815C8199
:101D3000640F751FAB85BC856A9FC0016B9F900DBA
:101D40007A9F900D112469817A81680F791F06842A
:101D5000F785E02DEF80F88409851A859D014F8570
:101D60005889898D9A8D0995D8CF570CC3948ACFFD
:101D70006A96CDBFDEBFDF91CF911F910F91FF908B
:101D8000EF90DF90CF90BF90AF909F908F907F901B
:101D90006F905F904F903F902F9008958F929F92F9
:101DA000AF92CF92EF92FF920F931F93CF93DF9357
:101DB000EC01262F898D9A8D009709F050C06A306A
:101DC000D1F41C861D868D8948E0849F90011124E2
:101DD0008E859F85820F931F8E879F8781E090E07D
:101DE000DF91CF911F910F91FF90EF90CF90AF9027
:101DF0009F908F9008956D3089F3CC88AD888F893E
:101E00008823C1F08C859D8536E0C39E800D911D91
:101E10001124488559854817590764F44E855F8514
:101E20001C861D8638E0A39EC0011124840F951FD7
:101E30008E879F87EA88FB88088919894E855F8588
:101E40006C857D85CE018EDD2C898C859D8546E057
:101E5000249F800D911D11248C879D87BFCF6A30F0
:101E600069F41C861D86FC013896E4912D898E85C7
:101E70009F85E29F800D911D1124AECF6D3009F436
:101E8000ADCFFC0134963491631708F4A7CF329696
:101E9000E491E61708F4A2CFFC0132968590949065
:101EA000462F431B342F47E0349F800C911C112494
:101EB000F401329634913196E4913323A1F1EE236B
:101EC00091F1CC88F4013596E491AD884F89442393
:101ED00001F10E2E000CFF0BE30FF11DCE9EA001B1
:101EE000CF9E500D11246C857D85460F571F688548
:101EF0007985641775076CF44E855F851C861D8691
:101F0000FC013896E491AE9E400D511D11244E8780
:101F10005F87EA88FB88088919894E855F856C850B
:101F20007D85CE011FDDF4013496E4912C898C85EA
:101F30009D85E29F800D911D11248ECF0F931F93DD
:101F4000CF93DF938C01D0E0C0E0F801EC0FFD1FD0
:101F50006491662339F081E29AE220DF892B11F047
:101F60002196F3CFCE01DF91CF911F910F9108956C
:101F70006F927F928F929F92AF92BF92CF92DF9299
:101F8000EF92FF920F931F93CF93DF93EC016B01BE
:101F90005A0139014801E881F9810284F385E02D75
:101FA0000995E881F9810288F389E02D8701930181
:101FB000A501B601CE010995A501480D591D415055
:101FC0005109E881F9810288F389E02D9301B60176
:101FD000CE010995E881F9810088F189E02D94010D
:101FE000A501B601CE010995C60CD71CB6016150FA
:101FF0007109E881F9810088F189E02D9401A5013A
:10200000CE010995E881F9810688F789E02DCE0196
:10201000DF91CF911F910F91FF90EF90DF90CF90C4
:10202000BF90AF909F908F907F906F9009946F9228
:102030007F928F929F92AF92BF92CF92DF92EF9258
:10204000FF920F931F93CF93DF935C01EB016A0123
:10205000490138018701DC01ED91FC91621773079A
:1020600019F5641675062CF0962D872D3A01C92EA8
:10207000D82E9601261937092F5F3F4F048CF58D16
:10208000E02DA301BE01C5010995DF91CF911F91FC
:102090000F91FF90EF90DF90CF90BF90AF909F9007
:1020A0008F907F906F9008954615570591F42617ED
:1020B000370724F0892D4B01C22FD82F9E012819F4
:1020C00039092F5F3F4F068CF78DE02DA601B40133
:1020D000DACF0284F385E02D0995D501ED91FC91CD
:1020E0000488F589E02D83019401A601BE01C50194
:1020F0000995D501ED91FC910688F789E02DC50180
:10210000DF91CF911F910F91FF90EF90DF90CF90D3
:10211000BF90AF909F908F907F906F900994EF92B7
:10212000FF920F931F93DC011A960D911C911B9740
:1021300018962D913C911997ED91FC9100A0F1A179
:10214000E02D7B0150E040E070E060E009951F91D8
:102150000F91FF90EF9008954F925F926F927F9250
:102160008F929F92AF92BF92CF92DF92EF92FF92A7
:102170000F931F93CF93DF936C012B015A01390109
:102180004801DC01ED91FC910284F385E02D099575
:10219000E201640C751CD601ED91FC91C615D705C2
:1021A0005CF40088F189E02D87019401A501BE014E
:1021B000C60109952196EFCF0688F789E02DC60163
:1021C000DF91CF911F910F91FF90EF90DF90CF9013
:1021D000BF90AF909F908F907F906F905F904F9047
:1021E00009948F929F92AF92BF92CF92DF92EF921B
:1021F000FF920F931F93CF93DF93EC015B014A0192
:102200006901E881F9810284F385E02D0995950142
:102210002C0D3D1D21503109E881F9810488F58993
:10222000E02D78018401A401B501CE010995E88172
:10223000F9810688F789E02DCE01DF91CF911F91BA
:102240000F91FF90EF90DF90CF90BF90AF909F9055
:102250008F9009948F929F92AF92BF92CF92DF920C
:10226000EF92FF920F931F93CF93DF93EC015B01EB
:102270004A0169017801E881F9810284F385E02D42
:102280000995C80CD91C860101501109E881F98112
:102290000488F589E02D9501A401B501CE010995C9
:1022A000E881F9810688F789E02DCE01DF91CF9191
:1022B0001F910F91FF90EF90DF90CF90BF90AF9064
:1022C0009F908F900994EF92FF920F931F93DC01E0
:1022D000ED91FC9100A0F1A1E02D09951F910F91C6
:1022E000FF90EF9008950F931F93DC01ED91FC9107
:1022F000068CF78DE02D09951F910F9108950F938E
:102300001F93DC01ED91FC91048CF58DE02D099576
:102310001F910F910895DC01ED91FC910084F185EE
:10232000E02D09943F924F925F926F927F928F922D
:102330009F92AF92BF92CF92DF92EF92FF920F9354
:102340001F93CF93DF935C017B014A01690139013F
:1023500087E0680E711C93E0759467949A95E1F795
:102360002B01400E511E10E000E0312CD0E0C0E007
:10237000CE0187709927330C892B59F4FE0183E035
:10238000F595E7958A95E1F7E00FF11FE80DF91D46
:10239000349037FE09C021E030E0A701B5016C0F91
:1023A0007D1F81E29AE2B7DF2196CC16DD0601F7A8
:1023B0008FEFE81AF80A060D171DE414F504B1F6BC
:1023C000DF91CF911F910F91FF90EF90DF90CF9011
:1023D000BF90AF909F908F907F906F905F904F9045
:1023E0003F9008952F923F924F925F926F927F920B
:1023F0008F929F92AF92BF92CF92DF92EF92FF9215
:102400000F931F93CF93DF93CDB7DEB72697CDBF42
:10241000DEBF3C016A012D833E83EB82FC825801C2
:10242000A41AB50AB7FE03C0B194A194B1088D8077
:102430009E80861A970A97FE03C091948194910812
:102440008A149B045CF0902F812F0D811E819D8347
:102450008E839C2D8D2D6B01692F782F0C151D05FA
:102460005CF09D818E816D837E83692F782F902F04
:10247000812F8601C92ED82E1601201A310A2B0170
:102480002D813E81421A530A57FE03C05194419454
:102490005108710137FE03C03FEFE31AF30AF594C8
:1024A000E7948D819E81861797075CF5A1E0B0E0E7
:1024B000A983BA83C016D1064CF1D301ED91FC91EA
:1024C0000484F585E02D2B813C81A8016D817E81FE
:1024D0008A149B041CF04D815E81B801C3010995EB
:1024E000E418F508F7FE0AC02D813E8189819A81A2
:1024F000280F391F2D833E83E20CF31C0F5F1F4F03
:10250000D9CF2FEF3FEF29833A83D4CF2696CDBF83
:10251000DEBFDF91CF911F910F91FF90EF90DF9081
:10252000CF90BF90AF909F908F907F906F905F9073
:102530004F903F902F9008950895E0EAF8E091853C
:102540009066918792E09093B72980939A28109291
:102550009928089581E08093992810929A2893E011
:102560009093AA089091AB0891FF0BC01092A428F9
:10257000F0E0E0E009958093A32885E08093B729F7
:1025800008951092A5288093A22886E0F7CF0F9394
:102590009091B729913009F04EC03091B429311192
:1025A0004CC09093B4291092B32960939C287093E7
:1025B0009D2840939E282093A0281092B529109220
:1025C000B62900939F28880F80939B2893E024E0EE
:1025D00080919E28882331F09093B72980919B2881
:1025E0008E7F09C08091A028882341F02093B729CD
:1025F00080919B2881608093A70808C080919E28C5
:10260000811104C08091A028882331F38091B329DF
:102610008823E1F38091B3298330D1F28091A028FF
:10262000882321F08091B6290F9108959091B329C4
:1026300081E09130C9F780E0F7CF81E0F5CF0F93CB
:10264000082F20E04091FC296BEB79E28091FB2977
:102650009EDF1092BA291092FC290F9108951F93C2
:10266000CF93DF93EA01122FDC0111968D919C919B
:10267000DC01ED91FC910280F381E02D0995C817F2
:10268000D90721F4812FDBDF91E0811190E0892FC0
:10269000DF91CF911F910895AF92BF92CF92DF92B9
:1026A000EF92FF920F931F93CF93DF9300D0CDB79C
:1026B000DEB7DC01211103C01A962C911A97253040
:1026C00008F042C051964D935D936D937C9354975F
:1026D00090E080E0E22EF12C8E159F05B4F41C965C
:1026E0002C911C9721110AC0FD01E80FF91F4587A5
:1026F000452F562F672F77270196EECFF701E81B5E
:10270000F90BEA0FFB1F4487F3CF6D018DE0C80E74
:10271000D11C18969C91189719968C9119979983AA
:102720008A83AD90BC901197A114B104D9F11B9686
:102730000C9110E098012E0D3F1DD50114968D913E
:102740009C918217930710F480E00CC0F501808102
:102750000E94CF050115110591F421E0A701B601F2
:10276000C5017DDF0F900F90DF91CF911F910F91E9
:10277000FF90EF90DF90CF90BF90AF900895D5017C
:1027800011968D919C91DC01ED91FC910280F38179
:10279000E02DA801BE016F5F7F4F0995081719074B
:1027A00099F6DBCF1296ED91FC911397309741F19A
:1027B00016962D913C9117971B960C9110E02330A3
:1027C000310569F48E7F89839A830F5F1F4F9E01C5
:1027D0002F5F3F4FA701B601CF0177D8C3CF211597
:1027E000310519F49F779983F2CF2230310511F426
:1027F0009068F9CF2130310551F79F779064F3CF7E
:102800001496ED91FC911597309709F49DCF808532
:10281000882309F499CFA680B780A114B10409F4E4
:1028200093CF870196011B964C91BE016F5F7F4F3E
:1028300081859285F501099595CFCF92DF92EF9230
:10284000FF92CF93DF9328EE33E040E050E00E9408
:10285000003C283C3105E0F1203283E0380798F154
:10286000203B3440A8F528EE33E0C8E7D0E050E044
:1028700040E060E27EE480E090E00E94223C69015A
:102880007A01BE0190E080E02EEC3FEF4FEF5FEF6A
:102890000E94223CC701B601620F731F841F951F5F
:1028A0006A5071098109910922E030E040E050E06E
:1028B0000E94223C2093A608DF91CF91FF90EF90D9
:1028C000DF90CF90089520E931E0CCE2D1E0CFCF86
:1028D00024E630E0C8EED3E0CACFCF931092B929F6
:1028E0001092B8291092BA291092FC298091B72928
:1028F000811121C08091E3058073F9F462E082E0E8
:102900000E94350662E083E00E943506C1E0C09374
:10291000B7291092B6291092B5291092B4291092B5
:10292000B32981EC8093A30860EA76E881E090E027
:1029300084DFC093A508CF9108958091E30580734B
:10294000803221F762E08AE00E94350662E08BE087
:10295000DBCFE091B9298091B829E81730F4F0E095
:10296000ED58F64D808190E008958FEF9FEF089528
:102970009091B9298091B8292FEF3FEF981748F42B
:10298000E92FF0E0ED58F64D208130E09F5F909305
:10299000B929C9010895CF92DF92EF92FF920F9368
:1029A0001F93CF93DF937C018A01EB016B01C40E6F
:1029B000D51ECC15DD0551F06991D701ED91FC9143
:1029C0000190F081E02DC7010995F3CFC801DF9197
:1029D000CF911F910F91FF90EF90DF90CF900895CE
:1029E0002091FC29203440F021E030E0FC012283DA
:1029F000338390E080E008958091BA29E82FF0E0D9
:102A0000E554F64D60838F5F8093BA298093FC294B
:102A100081E090E008950F93CF93C82F82E60E9443
:102A2000CF056C2F85E19AE2DBDF80E008DE8823AA
:102A300021F08FEFCF910F91089583E799E2809372
:102A400071299093722901E021E040E070E060E09C
:102A500082E69DDD1092B9298093B829882349F335
:102A600085E19AE285DFE6CF81E0E9CDEF92FF9242
:102A70000F931F93CF937C01C62F80913E2A909194
:102A80003F2A892B09F44CC08091422A0E94CF052D
:102A900080913E2A90913F2ADC01ED91FC910190BA
:102AA000F081E02D60E009958701EE24E394F12C9C
:102AB000C15080913E2A90913F2ACF3F59F1B0E218
:102AC000EB16F104A0F0D0DF8091422A0E94CF05DE
:102AD00080913E2A90913F2ADC01ED91FC9101907A
:102AE000F081E02D60E00995EE24E394F12C8091D3
:102AF0003E2A90913F2AF8016491DC01ED91FC910E
:102B00000190F081E02D0995BFEFEB1AFB0A0F5FF2
:102B10001F4FCECFCF911F910F91FF90EF90A4CF79
:102B2000E0914E2AF0914F2A90818091542A80950D
:102B3000892380838701C15008F438C0F80184914B
:102B400020913C2A30913D2A232B29F00E94C50573
:102B50000F5F1F4FF0CF28E030E040E8E0914A2AB5
:102B6000F0914B2A9091522A582F5423D9F050813A
:102B7000952B9083E0914C2AF0914D2A90815091B1
:102B8000532A952B9083E0914C2AF0914D2A508145
:102B90009091532A90959523908346952150310921
:102BA000E9F6D6CF508190959523E3CFCF911F9131
:102BB0000F91FF90EF900895CF93DF93D82FC62FFA
:102BC00082E60E94CF056D2F85E19AE209DF6C2F26
:102BD00085E19AE205DF85E19AE2DF91CF9144CF6A
:102BE0001F93CF93DF93EC018D8D9E8D892BF1F098
:102BF000162F89A10E94CF058D8D9E8DDC01ED9150
:102C0000FC910190F081E02D60E009958D8D9E8D05
:102C1000DC01ED91FC910190F081E02D612F09958F
:102C20008D8D9E8DDF91CF911F911ECFADA5BEA53D
:102C30009C918BA9809589238C938B8D9C8D892B5E
:102C400031F0862FDF91CF911F910C94C50528E0BC
:102C500030E080E8A9A5BAA599A9462F4823C1F07C
:102C60004C91942B9C93ABA5BCA59C914AA9942B09
:102C70009C93ABA5BCA54C919AA9909594239C9349
:102C800086952150310931F7DF91CF911F91089539
:102C90004C9190959423E6CFEF92FF920F931F9360
:102CA000CF93DF9380913E2A90913F2A892B09F49C
:102CB00087C06091562A7091572A8091582A909126
:102CC000592ABBDD64E080E39BE0D0DE8091252AB9
:102CD0009091262A8034910509F089C060E281E252
:102CE0009AE27EDF6091252A615E81E29AE278DFD6
:102CF0002091272A3091282AC901079697FD079627
:102D000023E0959587952A95E1F72091252A309122
:102D1000262A829F8001839F100D929F100D1124FF
:102D2000C091402AD091412A80913E2A90913F2A19
:102D30000C0F1D1F892B09F479C08091422A0E9433
:102D4000CF0580913E2A90913F2ADC01ED91FC91C4
:102D50000190F081E02D60E40995EE24E394F12CDC
:102D600080913E2A90913F2A0C171D0709F447C015
:102D7000B0E2EB16F104A0F077DE8091422A0E94C7
:102D8000CF0580913E2A90913F2ADC01ED91FC9184
:102D90000190F081E02D60E40995EE24E394F12C9C
:102DA00080913E2A90913F2A6991DC01ED91FC913E
:102DB0000190F081E02D0995BFEFEB1AFB0AD0CF0F
:102DC00080913C2A90913D2A009731F060915F2AD2
:102DD0007091602A0E94930AE091502AF091512A42
:102DE00090818091552A8095892380836BCF60E004
:102DF00081E29AE2F5DE6091252A615076CF34DED9
:102E000080913E2A90913F2A892B09F450C060910D
:102E10005A2A70915B2A80915C2A90915D2ADF91F9
:102E2000CF911F910F91FF90EF9007CDE0914E2A27
:102E3000F0914F2A80819091542A892B80830C171E
:102E40001D07F1F2899120913C2A30913D2A232BD4
:102E500019F00E94C505F3CF28E030E040E8E0918A
:102E60004A2AF0914B2A9091522A582F5423D9F094
:102E70005081952B9083E0914C2AF0914D2A9081BE
:102E80005091532A952B9083E0914C2AF0914D2A32
:102E900050819091532A9095952390834695215087
:102EA0003109E9F6CCCF508190959523E3CFE0919D
:102EB000502AF091512A80819091552A892B808344
:102EC00080913C2A90913D2A009741F0DF91CF916B
:102ED0001F910F91FF90EF900C94DD09DF91CF913E
:102EE0001F910F91FF90EF9008951F93CF93DF9361
:102EF000EC01162F8D8D9E8D892BB1F06DA97EA9C9
:102F00008FA998AD9ADC66EA111167EACE0168DEF6
:102F10008D8D9E8D892BC1F069AD7AAD8BAD9CAD49
:102F2000DF91CF911F9189CC8B8D9C8D009721F0E3
:102F30006EAD7FAD0E94930AEFA5F8A990818CA990
:102F4000809589238083DFCFCE01DF91CF911F91C0
:102F50000C94860ACF93DF93EC018B81882369F070
:102F600088810E94CF0589819A817EDD91E081115F
:102F700090E0892FDF91CF910895AFDC81E08B83C2
:102F8000CE01E8DF982F8111EBCFF3CF90E080E006
:102F900008958F929F92AF92BF92EF92FF920F93FC
:102FA0001F93CF93DF937C01EB018A01FC018080AA
:102FB0009180A280B380288139814A815B81C501DB
:102FC000B4010E94333A87FD0DC0F80120813181A0
:102FD00042815381C501B4010E94823BE70118166A
:102FE0000CF4E801CE01DF91CF911F910F91FF907A
:102FF000EF90BF90AF909F908F900895CF92DF9207
:10300000EF92FF92CF93DF9300D000D0CDB7DEB721
:1030100069837A838B839C8349E659E265E679E28A
:10302000CE010196B6DFFC016081718182819381BE
:1030300069837A838B839C832091622930916329F1
:103040002330310541F460935E2970935F298093AA
:103050006029909361292DEC3CEC4CEC5DE30E94DF
:10306000373A6B017C0120E030E0A9010E94823BED
:1030700020E030E040E05FE387FD1FC0C701B601FC
:103080000E94CF390E949F3A8CE196DD6CE38DE17E
:1030900093DD89E1C0DC8770682F686489E18CDD8D
:1030A00061E088E189DD2496CDBFDEBFDF91CF915D
:1030B000FF90EF90DF90CF900895C701B6010E9476
:1030C000CE39E0CFEC0188EDA89584BF8091000156
:1030D000807F8093000160E086E00E94920610925B
:1030E0005429C555D444C8810C2E000CDD0B61E079
:1030F0008CE00E94350610E000E00C171D07BCF4C0
:1031000061E08CE00E94920666E970E080E090E069
:103110000E94280760E08CE00E94920666E970E059
:1031200080E090E00E9428070F5F1F4FE6CF68EE17
:1031300073E080E090E00E942807DDCF8F929F929D
:10314000AF92BF92CF92DF92EF92FF920F931F93B5
:10315000CF93DF93EC016B017A0188818B31B8F456
:10316000A82EB12CF501E851F44410811F3F79F0ED
:103170000E946706F501ED5FF344E08120E2E29FE3
:10318000F0011124FC5F8085182301E009F400E0C0
:1031900011E010278A81811731F00E9455076B8357
:1031A0007C838D839E830E9455078B809C80AD809D
:1031B000BE80681979098A099B096B307105810500
:1031C000910578F08981811761F01983011130C070
:1031D00081E08B870E9455076F83788789879A875C
:1031E0001C868B858823B1F08C85811113C00E94C9
:1031F00055078F809884A984BA84681979098A0947
:103200009B09613971408105910520F0F70109950D
:1032100081E08C871A83DF91CF911F910F91FF90EE
:10322000EF90DF90CF90BF90AF909F908F900895D8
:103230001B868C858111EECFF6010995D2CF8F9236
:103240009F92AF92BF92CF92DF92EF92FF920F9335
:103250001F93CF93DF93CDB7DEB72897CDBFDEBFE7
:103260006D837E838F8398877A0180903F29909029
:103270004029A0904129B090422920E030E040E868
:1032800050E4C501B4010E94333A87FF06C0812C87
:10329000912C90E8A92E90E4B92E89829A82AB8273
:1032A000BC8243E459E2BE016F5F7F4FCE010596B9
:1032B00070DEFC0160817181828193816D837E83E8
:1032C0008F839887209162293091632921303105BD
:1032D00041F46093AA287093AB288093AC28909314
:1032E000AD2820E030E040E450E40E94CE392AE0EE
:1032F00037ED43EA5CE30E94373A4B015C0120E082
:1033000030E0A9010E94823B20E030E040E05FE332
:1033100087FD50C0C501B4010E94CF390E949F3A79
:103320008B016115744010F00FEF13E0B70190E0CE
:1033300080E00E94D03A20E030E048E452E40E946D
:10334000373A6B017C0120E030E0A9010E94823B0A
:1033500020E030E040E05FE387FD31C0C701B60107
:103360000E94CF390E949F3AF62E67FF02C08FE776
:10337000F82E602F8AE120DC6F2D8BE11DDC89E1C6
:103380004ADB8470612F6063682B89E115DC61E0A2
:1033900088E112DC2896CDBFDEBFDF91CF911F916F
:1033A0000F91FF90EF90DF90CF90BF90AF909F90E4
:1033B0008F900895C501B4010E94CE39AFCFC701E7
:1033C000B6010E94CE39CECF80914B29882309F4D3
:1033D00051C010922429109225291092262910926A
:1033E0002729109212291092132910921429109251
:1033F00015290E9455076093162970931729809309
:1034000018299093192910922E2910922D29109283
:103410002C29109228291092292910922A291092D9
:103420002B29109222291092232910921E291092E2
:103430001F2910922029109221294091682850912B
:10344000692860916028709161288091622890912C
:103450006328F5DE8091602890916128A091622810
:10346000B09163288093642890936528A093662880
:10347000B0936728089580916229909163298230E2
:10348000910509F04FC080915529909156290097D8
:10349000B9F52DEC3CEC4CEC5DE36091602870914B
:1034A000612880916228909163280E94CF396093AF
:1034B000602870936128809362289093632843E486
:1034C00059E26CE37CEB80E698E263DDFC018081ED
:1034D0009181A281B3818093602890936128A09309
:1034E0006228B093632880915429882329F0809121
:1034F0002E29811101C068DF81E080935829089549
:103500000197D1F78091682890916928C2968938EF
:10351000F3E19F0710F088E893E180936828909387
:103520006928EACF8130910599F52DEC3CEC4CEC03
:103530005DE36091AA287091AB288091AC289091AE
:10354000AD280E94CF396093AA287093AB2880934E
:10355000AC289093AD2843E459E26FE379E28AEA1C
:1035600098E217DDFC016081718182819381609313
:10357000AA287093AB288093AC289093AD28209113
:103580005429222309F4B8CF48EB5BE058DEB4CFCE
:10359000039709F0B1CF2DEC3CEC4CEC5DE360916E
:1035A0005E2970915F2980916029909161290E9424
:1035B000CF3960935E2970935F298093602990933F
:1035C000612949E659E265E679E28EE599E2E1DCB6
:1035D000FC01608171818281938160935E29709387
:1035E0005F29809360299093612920915429222397
:1035F00009F482CF03DD80CF809162299091632905
:103600008230910509F051C0809155299091562939
:103610000097B9F52DEC3CEC4CEC5DE36091602833
:103620007091612880916228909163280E94CE3920
:103630006093602870936128809362289093632838
:1036400043E459E26CE37CEB80E698E2A2DCFC0107
:1036500080819181A281B3818093602890936128B9
:10366000A0936228B093632880915429882329F07D
:1036700080912E29811101C0A7DE81E08093582915
:1036800008950197D1F78091682890916928823335
:10369000910530F0C2978093682890936928EDCF08
:1036A0001092682810926928E8CF8130910599F529
:1036B0002DEC3CEC4CEC5DE36091AA287091AB28BA
:1036C0008091AC289091AD280E94CE396093AA28B1
:1036D0007093AB288093AC289093AD2843E459E2D3
:1036E0006FE379E28AEA98E254DCFC01608171813F
:1036F000828193816093AA287093AB288093AC2831
:103700009093AD2820915429222309F4B6CF48EB99
:103710005BE095DDB2CF039709F0AFCF2DEC3CEC29
:103720004CEC5DE360915E2970915F298091602986
:10373000909161290E94CE3960935E2970935F2930
:10374000809360299093612949E659E265E679E220
:103750008EE599E21EDCFC0160817181828193819A
:1037600060935E2970935F2980936029909361290B
:1037700020915429222309F480CF40DC7ECFCF93BF
:10378000C82F89E148D98770682F6C2B89E114DA3A
:1037900061E088E111DA68EC70E080E090E0CF91C0
:1037A0000C942807FC0180819181FC01FF2790FD8A
:1037B00006C080E094E1E82BF92B8081089580E039
:1037C00093E1F9CFAF92BF92CF92DF92EF92FF9247
:1037D0000F931F93CF93DF9300D0CDB7DEB78B014C
:1037E0006B0124E0C20ED11C7B015C01A61AB70A52
:1037F000C5018E0D9F1D89839A83CE010196D2DF6C
:10380000F70181937F01EC15FD0591F7C8010F9039
:103810000F90DF91CF911F910F91FF90EF90DF906C
:10382000CF90BF90AF9008951F93CF93DF93EC019B
:10383000162FB8DF8117B9F088819981FC01FF2725
:1038400090FD16C080E094E1E82BF92B10838FB730
:10385000F8949DE923E094BF209300108FBF8091DE
:10386000021081FDFCCFCE01DF91CF911F91089511
:1038700080E093E1E9CFAF92BF92CF92DF92EF92D7
:10388000FF920F931F93CF93DF9300D0CDB7DEB796
:103890008B016B0124E0C20ED11C7B015C01A61AD6
:1038A000B70AC5018E0D9F1D89839A83F701619127
:1038B0007F01CE010196B8DFEC14FD0491F7C80139
:1038C0000F900F90DF91CF911F910F91FF90EF908C
:1038D000DF90CF90BF90AF9008950F931F93CF9339
:1038E000DF9300D0CDB7DEB78B0189839A83FB01CC
:1038F0006081CE01019698DFC8010F900F90DF9193
:10390000CF911F910F910895EF92FF920F931F9304
:10391000CF93DF9300D0CDB7DEB78CE2E82E8CEBEF
:10392000F82E10E000E009831A83F70161917F010E
:10393000CE01019679DF0F5F1F4F0430110599F713
:10394000809162298983BE016F5F7F4F84E090E0A0
:10395000C4DF8091AE288983BE016F5F7F4F85E011
:1039600090E0BBDF6AEA78E286E090E084DF6EE513
:1039700079E284E190E07FDF809154298983BE0160
:103980006F5F7F4F8BE090E0A8DF60E678E28CE02D
:1039900090E071DF80E190E089839A8360916828EC
:1039A000CE01019641DF81E190E089839A836091A5
:1039B0006928CE01019638DF0F900F90DF91CF91EB
:1039C0001F910F91FF90EF9008952F923F924F9289
:1039D0005F926F927F928F929F92AF92BF92CF929F
:1039E000DF92EF92FF920F931F93CF93DF9300D05C
:1039F000CDB7DEB77C01DC011A960C913C01BDE02D
:103A00006B0E711CFC019085818599838A83A0804F
:103A1000B180A114B10409F46AC0C384D12CD501CA
:103A200014968D919C9115978C159D0508F4D2C024
:103A30008C910E94CF0520E0A601BE016F5F7F4FF1
:103A4000C5010E942F13882309F4C4C0402E512CB5
:103A5000912C812C8414950408F06AC0F5018481AE
:103A600095816201C818D9088C159D0508F46C0170
:103A7000D5018C91E3E7F9E2E0937129F093722983
:103A800001E092012C193D098216930608F400E02A
:103A90002C2DF1E4CF16D10408F020E440E070E0D2
:103AA00060E00E94C7121092B9298093B8298C1542
:103AB0001D0409F08FC08301080D191D1801C101F3
:103AC000801B910B8C159D0578F4D50111968D9175
:103AD0009C91DC01ED91FC910284F385E02D099528
:103AE000F10181931F01EBCF8C0C9D1CB3CFD7014B
:103AF0000280F381E02D309709F44AC016962D918B
:103B00003C91179710E01B964C9150E02330310503
:103B100079F5816089839A834F5F5F4F9301BE017E
:103B20006F5F7F4FCF010E942D0C882309F452C094
:103B3000D7011A964C9150E030E020E060E070E050
:103B4000CB01241735070CF048C0982F872F762F0C
:103B50006627D7011C96EC91E11137C0FA01E21BF0
:103B6000F30BEE0DFF1DE4856E2B2F5F3F4FE9CF6A
:103B70002115310519F490689983D0CF2230310591
:103B800011F49F77F9CF2130310541F6906CF4CFD5
:103B9000F701A481B5811097E9F018968C911897D8
:103BA0008823C1F01496CD90DC901597C114D104F0
:103BB00089F010E093014385BE016F5F7F4F199636
:103BC0008D919C91F6010995B0CFF701E20FF31F9B
:103BD000E585CACF6FEF7FEFCB010F900F90DF919C
:103BE000CF911F910F91FF90EF90DF90CF90BF90FA
:103BF000AF909F908F907F906F905F904F903F908D
:103C00002F9008950F931F93CF93DF93CDB7DEB717
:103C10006597CDBFDEBF8C01FC01808991891A8A2E
:103C20001B8A1C8A1D8A89839A831B821C8281E0DD
:103C30008C8728E030E029873A878D8783E08B875F
:103C4000CE010196C2DE0E94D03A2DEC3CEC4CE451
:103C500050E40E94863BF8012485358546855785CA
:103C60000E94863B20E030E04AE754E40E94863B15
:103C70006596CDBFDEBFDF91CF911F910F91089563
:103C8000CF92DF92EF92FF920F931F93CF93DF9328
:103C9000CDB7DEB76597CDBFDEBF8C01FC01828159
:103CA000938193DE24E096958795779567952A957D
:103CB000D1F7C12CD12C90E8E92E90E4F92E60FDCB
:103CC00006C0C12CD12C80E8E82E8FE3F82E20E02E
:103CD00030E543E450E5F801608571858285938580
:103CE0000E94863BF80124853585468557850E94CC
:103CF000863BA70196010E94863BF8012089318905
:103D00001A8A1B8A1C8A1D8A29833A831B821C8279
:103D100041E04C8722E030E029873A874D872B87A6
:103D20000E94A43AAB01BC0120E0CE0101960E94A2
:103D30004C136596CDBFDEBFDF91CF911F910F91E0
:103D4000FF90EF90DF90CF900895CF92DF92EF92A7
:103D5000FF920F931F93CF93DF93CDB7DEB7659795
:103D6000CDBFDEBF8C01FC01828193812EDE24E079
:103D700096958795779567952A95D1F7C12C90E40C
:103D8000D92E9CE9E92E92E4F92E60FD07C0C12CE2
:103D900080E4D82E8CE9E82E83E4F82EF80180899F
:103DA00091891A8A1B8A1C8A1D8A89839A831B829D
:103DB0001C8281E08C8724E030E029873A878D8758
:103DC00083E08B87CE01019600DE87FD9F6F0E9406
:103DD000D23A20E030E040E85DE30E94863BA70154
:103DE00096010E94863B20E034E244E759E40E94B9
:103DF000373A6596CDBFDEBFDF91CF911F910F910E
:103E0000FF90EF90DF90CF900895CF93DF93CDB7E1
:103E1000DEB76597CDBFDEBFFC01808991891A8A24
:103E20001B8A1C8A1D8A89839A831B821C8281E0DB
:103E30008C8725E030E029873A878D8783E08B8760
:103E4000CE010196C2DD24E096958795779567951A
:103E50002A95D1F70E94D03A20E030E543E453E4BC
:103E60000E94863B20E034E244E759E40E94373A5E
:103E70006596CDBFDEBFDF91CF9108950F931F935D
:103E8000CF93DF93CDB7DEB76597CDBFDEBF8C0193
:103E9000FC01808991891A8A1B8A1C8A1D8A898360
:103EA0009A831B821C8281E08C8727E030E029877F
:103EB0003A878D8783E08B87CE01019686DD87FD6B
:103EC0009F6F0E94D23A20E030E040E85DE30E941C
:103ED000863BF80124853585468557850E94863BBB
:103EE00020E030E04AE754E40E94863B6596CDBF6F
:103EF000DEBFDF91CF911F910F910895CF93DF9394
:103F0000CDB7DEB76597CDBFDEBFFC018089918953
:103F10001A8A1B8A1C8A1D8A89839A831B821C82A7
:103F200081E08C8726E030E029873A878D8782E020
:103F30008B87CE01019649DD072E000C880B990B6B
:103F40000E94D23A20E030E04AEF50E40E94863BE3
:103F500020E030E04AE754E40E94373A6596CDBF4E
:103F6000DEBFDF91CF910895CF93DF93CDB7DEB75A
:103F70006597CDBFDEBFFC01808991891A8A1B8AB3
:103F80001C8A1D8A89839A831B821C8281E08C870C
:103F900025E030E029873A878D8783E08B87CE0143
:103FA000019613DD24E096958795779567952A9578
:103FB000D1F70E94D03A20E030E543E453E40E9478
:103FC000863B20E034E244E759E40E94373A6596A4
:103FD000CDBFDEBFDF91CF910895CF93DF93CDB7F3
:103FE000DEB76597CDBFDEBFFC01808991891A8A53
:103FF0001B8A1C8A1D8A89839A831B821C8281E00A
:104000008C8726E030E029873A878D8782E08B878E
:10401000CE010196DADC072E000C880B990B0E946A
:10402000D23A20E030E04AEF50E40E94863B20E0A4
:1040300030E04AE754E40E94373A6596CDBFDEBFD0
:10404000DF91CF9108958F929F92AF92BF92CF92BE
:10405000DF92EF92FF920F931F93CF93DF93EC01C8
:104060004A015B0188819981B0DC2A8101E010E07E
:1040700002C0000F111F2A95E2F701501109012E0D
:10408000000C220B330BAB81680179010A2E04C0AE
:10409000CC0CDD1CEE1CFF1C0A94D2F7C094D0940B
:1040A000E094F094C622D722E822F922E881F9812F
:1040B000B901A801482159216A217B2104C0440F7C
:1040C000551F661F771FAA95D2F74C295D296E29C7
:1040D0007F292285CF01DF91CF911F910F91FF9012
:1040E000EF90DF90CF90BF90AF909F908F900C9407
:1040F0004C13FF920F931F93CF93DF93CDB7DEB78F
:104100002C97CDBFDEBF8C01FC01828193818D8312
:104110009E83FF24F394FF828FE0888741E050E084
:1041200060E070E0CE0105968EDFF8018681978110
:1041300089879A87FB868EE08C8741E050E060E0BB
:1041400070E0CE0109967FDFF80184819581898333
:104150009A8384E08B838CE08C834FE050E060E0B6
:1041600070E0CE0101966FDF2C96CDBFDEBFDF91F0
:10417000CF911F910F91FF900895BBCFCF92DF9207
:10418000EF92FF928091052A9091062A1EDC969567
:1041900087957795679560FF47C08FEF99E2E4DEDA
:1041A0006B017C01AC019B010E94E93B81113CC089
:1041B00020E030E0A901C701B6010E94823B87FDE3
:1041C00033C020E030E048E452E4C701B6010E9469
:1041D000333A87FF29C0C0922F29D0923029E0922C
:1041E0003129F09232298FEF99E248DE609333292A
:1041F0007093342980933529909336298FEF99E273
:1042000001DD609337297093382980933929909381
:104210003A298FEF99E2E1DE60933B2970933C29C4
:1042200080933D2990933E29FF90EF90DF90CF90AF
:1042300008952091272A3091282AC901079697FDD1
:10424000079623E0959587952A95E1F72091252AF1
:104250003091262A829FA001839F500D929F500D7E
:10426000112470E060E08091402A9091412A0C94E2
:10427000C33DFC0101900020E9F73197AF01481BD5
:10428000590BBC0181E29AE20C9408068F929F922E
:10429000AF92BF920F931F93CF93DF93CDB7DEB74B
:1042A000A197CDBFDEBF19A2423008F44AE08E01CB
:1042B0000F5D1F4F842E912CB12CA12CA5019401D0
:1042C0000E94003CE62FB901CA01EA30D4F4E05D57
:1042D000D801EE938D01232B242B252B79F790E029
:1042E00080E0109711F0CD01C4DFA196CDBFDEBFF5
:1042F000DF91CF911F910F91BF90AF909F908F90C2
:104300000895E95CE5CF4F925F926F927F928F9212
:104310009F92AF92BF92CF92DF92EF92FF92CF9394
:10432000DF936B017C01D42FAC019B010E94E93B20
:10433000882389F08DED9CEBDF91CF91FF90EF907A
:10434000DF90CF90BF90AF909F908F907F906F90B5
:104350005F904F908ECF26013701E89477F82FEFCA
:104360003FEF4FE75FE7C301B2010E94E93B8111D4
:104370000DC02FEF3FEF4FE75FE7C301B2010E948F
:10438000333A18161CF481EE9CEBD6CF2FEF3FEF9B
:104390004FE75FE4C701B6010E94823B18161CF488
:1043A00085EE9CEBC9CF2FEF3FEF4FE75FECC701E6
:1043B000B6010E94333A87FDF3CF20E030E0A90137
:1043C000C701B6010E94333A912C812C87FF0AC0A5
:1043D0006DE281E29AE20E94CE0E4C01F7FAF0946F
:1043E000F7F8F094CD2FA12C60E070E080E09FE31F
:1043F000AD1640F420E030E040E251E40E94373A4C
:10440000A394F6CFA70196010E94CF392B013C015E
:104410000E94A43A5B016C014AE038DF7C01E80CA1
:10442000F91CDD23A9F1C601B5010E94D03A9B0118
:10443000AC01C301B2010E94CE394B015C0189EE8F
:104440009CEB17DFE80EF91EC15010F120E030E0C0
:1044500040E251E4C501B4010E94863B2B013C01BE
:104460000E94A43A4B01B12CA12C4AE0C501B40131
:104470000DDFE80EF91EC501B4010E94D03A9B0180
:10448000AC01C301B2010E94CE394B015C01DCCF0B
:10449000C701DF91CF91FF90EF90DF90CF90BF9059
:1044A000AF909F908F907F906F905F904F90089506
:1044B0008F929F92AF92BF92CF92DF92EF92FF9234
:1044C0000F931F93CF93DF93B4DEC1E0C093352ADF
:1044D000C093362A81E090E08093332A9093342A67
:1044E0008093312A9093322A80915D298823B9F1F3
:1044F00082E08093352A8093362A8AE090E0809388
:104500002D2A90932E2A8FE090E080932F2A90936B
:10451000302A84E691E00E949E0FC093352AC09312
:10452000362A82E190E080932D2A90932E2A88E209
:1045300090E080932F2A9093302A83E591E00E94A7
:104540009E0FDF91CF911F910F91FF90EF90DF9021
:10455000CF90BF90AF909F908F900C944C1680910D
:1045600062299091632910922D2A10922E2A10927E
:104570002F2A1092302A8230910509F0D1C18FE4A0
:1045800091E00E949E0F8EE190E080932D2A9093FF
:104590002E2A10922F2A1092302A809154298111AC
:1045A00099C188E491E00E949E0F87E390E0809398
:1045B0002D2A90932E2A10922F2A1092302A809121
:1045C0002E29882309F48CC180912D29811185C160
:1045D0008EE391E00E949E0F82E690E080932D2A68
:1045E00090932E2A10922F2A1092302AC0903B29A5
:1045F000D0903C29E0903D29F0903E29A7019601FA
:10460000C701B6010E94E93B882309F473C180E326
:1046100091E00E949E0F01E010E020E830E04AE0C7
:1046200050E070E060E081E29AE20E94E9081092B6
:104630002D2A10922E2ACEE0D0E0C0932F2AD093BC
:10464000302A87E291E00E949E0F04E210E000937E
:104650002D2A10932E2AC0932F2AD093302A6091AE
:10466000602870916128809162289091632842E0CF
:1046700050E049DE85E291E00E949E0F10922D2AC3
:1046800010922E2ACAE1D0E0C0932F2AD093302A6C
:104690008EE191E00E949E0F00932D2A10932E2A06
:1046A000C0932F2AD093302A60916828709169288E
:1046B00090E080E00E94D03A20E030E04AE754E405
:1046C0000E94373A43E050E01EDE8CE191E00E9408
:1046D0009E0F809155299091562901E010E02AE221
:1046E00030E047E150E0892B21F020E330E043E265
:1046F00050E064E270E081E29AE20E94E90801E0A1
:1047000010E020E830E046E250E070E060E081E256
:104710009AE20E94E90810922D2A10922E2A8AE22B
:1047200090E080932F2A9093302A86E191E00E94B6
:104730009E0FC0903329D0903429E0903529F09015
:104740003629A7019601C701B6010E94E93B8111F4
:1047500046C020E030E04AE754E4C701B6010E94B9
:10476000373A9F7720E030E040EA50E40E94373A41
:104770006B017C0120E030E040E85FE30E94823B77
:10478000181634F4C12CD12C30E8E32E3FE3F32E7D
:1047900020E030E040EB52E4C701B6010E94863BC6
:1047A0000E949F3A4B01EB01EE24E394F12C08E0C8
:1047B00010E028E530E049E250E064E270E081E298
:1047C0009AE20E94B80F1C161D064CF4940149E2AF
:1047D00050E064E270E081E29AE20E94AC10109234
:1047E0002D2A10922E2A86E390E080932F2A909310
:1047F000302AC0902F29D0903029E0903129F090B4
:104800003229A7019601C701B6010E94E93B811137
:104810007EC0C701B6019F7742E050E074DD84E1BD
:1048200091E00E949E0F82E390E080932D2A909366
:104830002E2A86E390E080932F2A9093302AC0900E
:104840003329D0903429E0903529F0903629A701FA
:104850009601C701B6010E94E93B81115BC020E0CF
:1048600030E04AE754E4C701B6010E94373A9F7727
:1048700043E050E048DD8BE091E00E949E0F8CE524
:1048800090E080932D2A90932E2A86E390E08093E7
:104890002F2A9093302AC0903729D0903829E09061
:1048A0003929F0903A29A7019601C701B6010E9463
:1048B000E93B811132C020E030E04AE754E4C7010F
:1048C000B6010E94373A9F7742E050E01CDD84E059
:1048D00091E035CE8CE491E066CE81E491E07ACE31
:1048E00080912C29811103C084E391E073CE87E38A
:1048F00091E070CE50E040E0C701B60104DD67EF03
:1049000081E29AE20E94CE0E8EE291E082CE8DE0AC
:1049100091E087CF86E091E0B0CF8DEF90E00FCEB1
:10492000009709F0A0C187EF90E00E949E0F80E3FE
:1049300090E080932D2A90932E2A10922F2A109285
:10494000302A8AEE90E00E949E0F809154298111B6
:1049500096C183EE90E00E949E0F82E690E08093E5
:104960002D2A90932E2A10922F2A1092302AC0902E
:104970003B29D0903C29E0903D29F0903E29A701A9
:104980009601C701B6010E94E93B81117BC150E04D
:1049900040E0C701B601B7DC67EF81E29AE20E940E
:1049A000CE0E81EE90E00E949E0F01E010E020E824
:1049B00030E04AE050E070E060E081E29AE20E947C
:1049C000E90810922D2A10922E2ACEE0D0E0C09352
:1049D0002F2AD093302A88ED90E00E949E0F84E227
:1049E00090E080932D2A90932E2AC0932F2AD09363
:1049F000302A8091622990916329009709F04DC176
:104A00008091102990911129181619060CF03DC1BA
:104A10008091AE289091AF282CE0289FF001299F2B
:104A2000F00D1124E055F74D80819181009709F038
:104A300020DC84ED90E00E949E0F8091AE28909142
:104A4000AF282CE0289FF001299FF00D1124E0559C
:104A5000F74DC084D184E284F38441E050E0C70183
:104A6000B60151DC82ED90E00E949E0F10922D2A3B
:104A700010922E2ACAE1D0E0C0932F2AD093302A78
:104A800082EB90E00E949E0F84E290E080932D2ABA
:104A900090932E2AC0932F2AD093302A80902F29CA
:104AA00090903029A0903129B0903229A50194012D
:104AB000C501B4010E94E93B811132C1C501B401B5
:104AC0009F7742E050E01FDC80EB90E00E949E0F59
:104AD00084E290E080932D2A90932E2A86E290E043
:104AE00080932F2A9093302A8090332990903429F4
:104AF000A0903529B0903629A5019401C501B401D3
:104B00000E94E93B81110FC120E030E04AE754E404
:104B1000C501B4010E94373A9F7743E050E0F3DBD0
:104B200086EA90E00E949E0F84E590E080932D2A13
:104B300090932E2A86E290E080932F2A9093302A39
:104B40008090372990903829A0903929B0903A293F
:104B5000A5019401C501B4010E94E93B8111E6C0A1
:104B600020E030E04AE754E4C501B4010E94373A3E
:104B70009F7742E050E0C7DB8DE990E00E949E0FF6
:104B800010922D2A10922E2A84E390E080932F2AEF
:104B90009093302A80E990E00E949E0F2AE037ED42
:104BA00043E25CE3C701B6010E94823B18160CF099
:104BB000C8CC8090332990903429A0903529B090AA
:104BC0003629A5019401C501B4010E94E93B811178
:104BD000B8CC20E030E04AE754E4C501B4010E94BB
:104BE000373A9F77A70196010E94373A6B017C0103
:104BF00020E030E0A9010E94333A87FD9AC020E00E
:104C000030E040E85FE3C701B6010E94823B18161E
:104C10000CF493C020E030E048EB52E4C701B60149
:104C20000E94863B0E949F3A4B01EB01EE24E394E5
:104C3000F12C0CE010E02CE530E042E350E062E2C1
:104C400070E081E29AE20E94B80F1C161D060CF07B
:104C500078CC940142E350E062E270E081E29AE2B3
:104C60000E94AC106ECC8130910519F483EF90E076
:104C70005CCE039709F05BCE8FEE90E056CE87EEC8
:104C800090E069CE8DED90E08ECE86EC90E00E94B3
:104C90009E0FC12CD12C7601E9CE81309105F9F41B
:104CA0006091AA287091AB288091AC289091AD2892
:104CB00042E050E028DB81EC90E00E949E0FC09023
:104CC0004729D0904829E0904929F0904A2941E0AD
:104CD00050E0C701B60117DB8FEB90E0C5CE03971C
:104CE000C1F660915E2970915F2980916029909151
:104CF000612942E050E007DB8AEB90E00E949E0FC2
:104D0000C0906D29D0906E29E0906F29F0907029A5
:104D100041E050E0C701B601F6DA88EB90E0A4CE9E
:104D200088EA90E0D3CE8FE990E0FCCE85E990E070
:104D300025CFC12CD12C76016DCFC12CD12C90E880
:104D4000E92E9FE3F92E66CFEF92FF920F931F9308
:104D5000CF93DF93C091542981E0C827C093542991
:104D60006C2F86E00E9492066C2F8CE00E949206C7
:104D7000CC2309F446C08091622990916329823046
:104D8000910559F40E94E4190E94841CDF91CF918F
:104D90001F910F91FF90EF908BCB8130910569F4BB
:104DA0006091AA287091AB288091AC289091AD2891
:104DB00048EB5BE00E941F19E7CF039759F460911D
:104DC0005E2970915F2980916029909161290E94EC
:104DD000FE17DACF80911029909111291816190623
:104DE0009CF68091AE289091AF282CE0289FF0018E
:104DF000299FF00D1124E055F74D86810E94BF1BBD
:104E0000C3CF10922429109225291092262910929E
:104E10002729109212291092132910921429109206
:104E2000152910922C2980914B29882391F06091AB
:104E30003F2970914029809141299091422944EF66
:104E400051E00E941F1962E370E080E090E00E9450
:104E50002807E0901029F090112900EB18E2D0E02B
:104E6000C0E0CE15DF05CCF4045F1F4FF8013A9780
:104E700020E030E040EA50E46081718182819381DA
:104E80000E94333A811107C08CE08C9FF0018D9F06
:104E9000F00D1124B0CF2196E4CF88E0AFCFEF9290
:104EA000FF920F931F93CF93DF931092542960E0EA
:104EB00086E00E94920660E08CE00E9492062091BB
:104EC000622930916329C091642940914B29E4E023
:104ED000F0E004E010E0C9010196B8010E94ED3B4A
:104EE0009C01BC01615071096230710508F065C018
:104EF000411166C0319779F78093622990936329B5
:104F00001092552910925629109224291092252981
:104F100010922629109227291092122910921329F3
:104F2000109214291092152910922E2910922D29D1
:104F300010922C29442391F060913F2970914029CF
:104F4000809141299091422944EF51E00E941F191C
:104F500062E370E080E090E00E942807E090102972
:104F6000F090112900EB18E2D0E0C0E0CE15DF058B
:104F70008CF5045F1F4FF8013A9720E030E040EADB
:104F800050E460817181828193810E94333A811162
:104F90001FC08CE08C9FF0018D9FF00D1124E05517
:104FA000F74D86810E94BF1B0E94841CDF91CF9128
:104FB0001F910F91FF90EF907BCA8330910529F0EC
:104FC00020936229309363299BCFC111F9CF92CFEF
:104FD0002196CCCF88E0E6CFCF92DF92EF92FF927E
:104FE000CF9380916229909163298230910509F0D5
:104FF00058C08091552990915629009709F03FC0DB
:105000002DEC3CEC4CEC5DE36091602870916128E4
:1050100080916228909163280E94CF396093602824
:1050200070936128809362289093632843E459E247
:105030006CE37CEB80E698E20E94C917FC0180815A
:105040009181A281B3818093602890936128A0937D
:105050006228B093632880915429882331F080918D
:105060002E29811102C00E94E41922DA81E0809386
:105070005829CF91FF90EF90DF90CF90089501973E
:10508000A1F78091682890916928C2968938F3E148
:105090009F0710F088E893E180936828909369282F
:1050A000E4CF009711F5609110297091112916161F
:1050B0001706DCF68091AE289091AF2801960E94E9
:1050C000ED3B8093AE289093AF2820915429222362
:1050D00061F22CE0289FF001299FF00D1124E0558A
:1050E000F74D86810E94BF1BC0CF8130910509F02A
:1050F00065C0C090AA28D090AB28E090AC28F09072
:10510000AD28C0915429A70196016091432970915F
:10511000442980914529909146290E94333A1816D6
:1051200004F1809164298823E1F083E090E080938A
:105130006229909363296091652970916629809115
:1051400067299091682960935E2970935F29809305
:10515000602990936129CC2309F487CF0E94FE1720
:1051600084CF2DEC3CEC4CEC5DE3C701B6010E9412
:10517000CF396093AA287093AB288093AC28909382
:10518000AD2843E459E26FE379E28AEA98E20E94AB
:10519000C917FC0160817181828193816093AA2883
:1051A0007093AB288093AC289093AD28CC2309F45E
:1051B0005CCF48EB5BE00E941F1957CF039709F0C3
:1051C00054CF2DEC3CEC4CEC5DE360915E2970918A
:1051D0005F2980916029909161290E94CF39609365
:1051E0005E2970935F29809360299093612949E635
:1051F00059E265E679E28EE599E20E94C917FC0161
:10520000608171818281938160935E2970935F29AF
:10521000809360299093612920915429222309F4D5
:1052200024CF9CCFCF92DF92EF92FF92CF938091C9
:105230006229909163298230910509F05AC08091CA
:10524000552990915629009709F03FC02DEC3CEC70
:105250004CEC5DE360916028709161288091622838
:10526000909163280E94CE396093602870936128E2
:10527000809362289093632843E459E26CE37CEBCB
:1052800080E698E20E94C917FC0180819181A28189
:10529000B3818093602890936128A0936228B09393
:1052A000632880915429882331F080912E2981111F
:1052B00002C00E94E419FCD881E080935829CF9164
:1052C000FF90EF90DF90CF9008950197A1F7809124
:1052D0006828909169288233910530F0C2978093B5
:1052E000682890936928E7CF10926828109269285F
:1052F000E2CF009721F5809110299091112918167D
:105300001906CCF62091AE283091AF28121613065C
:105310000CF4C90101978093AE289093AF28209197
:105320005429222341F22CE0289FF001299FF00DFF
:105330001124E055F74D86810E94BF1BBCCF813000
:105340009105A9F52DEC3CEC4CEC5DE36091AA28AD
:105350007091AB288091AC289091AD280E94CE39F5
:105360006093AA287093AB288093AC289093AD28C3
:1053700043E459E26FE379E28AEA98E20E94C917AE
:10538000FC0160817181828193816093AA2870936E
:10539000AB288093AC289093AD28209154292223E8
:1053A00009F489CF48EB5BE00E941F1984CF039773
:1053B00009F081CFC0905E29D0905F29E0906029EC
:1053C000F0906129C0915429A70196016091652947
:1053D0007091662980916729909168290E94823B8B
:1053E00087FD1AC081E090E0809362299093632941
:1053F00060914329709144298091452990914629D3
:105400006093AA287093AB288093AC289093AD2822
:10541000CC2309F450CFC6CF2DEC3CEC4CEC5DE333
:10542000C701B6010E94CE3960935E2970935F294F
:10543000809360299093612949E659E265E679E213
:105440008EE599E20E94C917FC0160817181828119
:10545000938160935E2970935F2980936029909374
:105460006129CC2309F427CF0E94FE1724CF8F9205
:105470009F92AF92BF92CF92DF92EF92FF920F93E3
:105480001F93CF93DF938C01D62EEA01B22E86E0D4
:1054900090E00E949A3C7C01DC01DC921196CD9355
:1054A000DC93129713961C92139780E290E0149667
:1054B0008D939C931597F801E08AF18A0E946D14F0
:1054C000C1E0D7011396CC93C7010E94AA17A82E5A
:1054D00081110FC0B12C8B2DDF91CF911F910F91B6
:1054E000FF90EF90DF90CF90BF90AF909F908F9004
:1054F000089585E190E00E949A3C7C01F801808843
:105500009188DC0151961D921D921D921C92549718
:105510008D929C92119712961D921C9213971B9636
:10552000CC931B978FE390E018968D939C931997DB
:105530001C96CC931C97D2E01A96DC9385E190E000
:105540000E949A3C6C01FC01118A128A138A148A07
:105550008082918212821382C3878EE390E08087DB
:105560009187C487D28784E090E00E949A3CFC0136
:10557000E082F1828CE0828384E08383C6010E9412
:10558000E51C6934744509F0A5CFC7010E94E51CEC
:1055900024E096958795779567952A95D1F77F7042
:1055A00088279927D80152966D937C93539785E16C
:1055B00090E00E949A3CFC01D8015096ED90FC903E
:1055C0005197118A128A138A148AE082F182128218
:1055D0001382C38710861186C487D28712968D9353
:1055E0009C93139785E190E00E949A3CFC01118AFC
:1055F000128A138A148AE082F18212821382C3878C
:1056000081E090E080879187C487D287D801149683
:10561000ED93FC93159785E190E00E949A3CFC0184
:10562000118A128A138A148AE082F182128213820A
:10563000C3878BE090E080879187C487D287D801A9
:105640001696ED93FC931797B11045CFED91FC9111
:105650000280F381E02DC801099562E070E080E0EE
:1056600090E00E942807BA2C36CFCF93DF93EC014D
:10567000FEDE882339F081E02A893B8928323240D6
:1056800009F080E0DF91CF9108950E94BF3D1F9205
:105690000F920FB60F9211248F939F93AF93BF93E6
:1056A0008091A6289091A728A091A828B091A92818
:1056B0000196A11DB11D8093A6289093A728A093C1
:1056C000A828B093A92881E08093A60ABF91AF9142
:1056D0009F918F910F900FBE0F901F9018951F9262
:1056E0000F920FB60F9211242F933F934F935F9316
:1056F0006F937F938F939F93AF93BF93CF93EF93CA
:10570000FF93C091AB08C2FF0AC01092A528109267
:10571000A4281092A32884E00E949D1212C0C6FF04
:105720002DC08091A228813041F48091A52890E07D
:10573000F0E0E0E009951092A228C0FF14C00E949A
:10574000AA12FF91EF91CF91BF91AF919F918F914D
:105750007F916F915F914F913F912F910F900FBE6D
:105760000F901F90189580E48093AB0881E00E9411
:105770009D128091AB0885FFE4CFE1CFC7FF50C0F9
:10578000C3FF08C01092A5281092A4281092A32845
:1057900083E0C2CF8091A90880668093A908809198
:1057A000AB0881FF26C08091A428882349F080910E
:1057B000AB0884FF05C082E08093AA0881E0ACCFEB
:1057C0009091A4288091A328981778F4E091A428B8
:1057D000F0E080818093AD088091A4288F5F809352
:1057E000A42883E08093AA08ACCF82E08093AA0823
:1057F00093CF9091A5288091A128981760F480916B
:10580000AD08E091A528F0E080838091A5288F5F06
:105810008093A528E6CF86E08093AA0882E07CCF1B
:1058200085E07ACF1F920F920FB60F9211242F931B
:105830003F938F939F93EF93FF938091A508982FA9
:105840009C70C9F08091A50894E082FF93E090934A
:10585000B3298093A50881E08093B7291092B429D9
:10586000FF91EF919F918F913F912F910F900FBEDC
:105870000F901F90189586FF4CC020919E28909104
:10588000A0288091A50884FF10C080919F288823BC
:1058900051F083E08093A40885E08093B3291092AF
:1058A000B42981E031C081E0F5CF8091B52982171C
:1058B00090F4E091B52980919C2890919D28E80F63
:1058C000F92FF11D80818093A8088091B5298F5F01
:1058D0008093B529C5CF8091B629891748F484E013
:1058E0008093B72980919B2881608093A708B8CFC7
:1058F00080919F28882359F083E08093A40881E059
:105900008093B3291092B4298093B729A9CF81E05D
:10591000F4CF87FF3DC09091B6298091A0289817B9
:10592000D8F48091A808E091B6292091712930918E
:105930007229E20FF32FF11D80838091B6298F5FCA
:105940008093B6299091A0288091B6298917C0F438
:1059500082E08093A40884CF80919F28882371F0EF
:1059600087E08093A40882E08093B3291092B42941
:1059700081E08093B7291092A02872CF85E0F1CF03
:1059800080919F28882311F087E0B7CF85E0B5CFBD
:1059900086E083CFFC0140E856E968E970E090E0DA
:1059A0009F5F963011F497E00BC0769567955795F9
:1059B0004795413089E058078DE36807710580F706
:1059C00084E08183892F8095282F217030E084E046
:1059D000220F331F8A95E1F79162922B90830895ED
:1059E0008DEF99E2D7DFA5E1BAE212961D921C92E3
:1059F000139748EE53E060E070E014964D935D938A
:105A00006D937C9317978DE89CEB8D939C931197E6
:105A1000E1E2FAE21282138220E830E02483358347
:105A200080E490E0868397832087318782879387FD
:105A3000168A148615861686178681E0858B848BD8
:105A40002FEF3FEF228B338B208B318B878B108E88
:105A5000118E128E85EB9CEB80839183138E148EB6
:105A6000A58FB68F178E10A28FEF84A385A386A370
:105A700087A380A780E89AE1A6E0B0E085AB96AB6B
:105A8000A7ABB0AF80EA96E8A1E0B0E081AF92AFFB
:105A9000A3AFB4AF8FE59AE27DDF8FE99CEB8093F3
:105AA000FF299093002A0895CF93DF93CDB7DEB7F7
:105AB0006897CDBFDEBF28ED80E024BF80936100F2
:105AC00080910206866080930206809100068160C4
:105AD00080930006809102068F7C80658093020689
